S00F000073656E736F72732E7372656308
S11300000C94B5000C94D2000C94D2000C94D20041
S11300100C94D2000C94D2000C94D2000C94D20014
S11300200C94D2000C94D2000C94D2000C94D20004
S11300300C94D2000C94D2000C94D2000C94D200F4
S11300400C94D2000C94D2000C9420040C94D20092
S11300500C94D2000C94D2000C94D2000C94D200D4
S11300600C94D2000C94D2006E616E00696E66002E
S113007000407A10F35A00A0724E18090010A5D45B
S1130080E80000E87648170000E40B54020000CAB8
S11300909A3B000000E1F5050000809698000000FE
S11300A040420F000000A08601000000102700005D
S11300B00000E803000000006400000000000A00E3
S11300C0000000000100000000002C76D888DC67E6
S11300D04F0823DFC1DFAE59E1B1B796E5E3E4533E
S11300E0C63AE651997696E8E6C28426EB898C9B5B
S11300F062ED407C6FFCEFBC9C9F40F2BAA56FA5FB
S1130100F490055A2AF75C936B6CF9676DC11BFC7C
S1130110E0E40D47FEF520E6B500D0ED902E030097
S1130120943577050080841E080000204E0A0000E4
S113013000C80C333333330F986E12831141EF8DA3
S11301402114893BE65516CFFEE6DB18D1844B38E3
S11301501BF77C1D901DA4BBE424203284725E2214
S11301608100C9F124ECA1E53D2711241FBECFEF86
S1130170D8E0DEBFCDBF12E0A0E0B1E0E2EAF2E2F7
S113018002C005900D92A433B107D9F722E0A4E38D
S1130190B2E001C01D92A53EB207E1F70E94060736
S11301A00C944F110C9400004F925F926F927F92C7
S11301B08F929F92AF92BF92CF92DF92EF92FF9273
S11301C04B015C0160915502709156028091570277
S11301D0909158020E947B0A20E030E046E957E4FF
S11301E00E9495092B013C0160914F0270E080E070
S11301F090E00E94790A20E030E040E852E30E9457
S1130200300BA30192010E94300B20E030E040E863
S11302105FE30E9496096B017C0160915402062EF3
S1130220000C770B880B990B0E947B0A20E030E0CE
S113023040E852E30E94300BA30192010E94300B6C
S1130240A70196010E94300B20E030E040E85FE314
S11302500E949609A70196010E94300B6B017C0154
S1130260C501B4010E947B0A4B015C0160915202FA
S113027070915302072E000C880B990B0E947B0A85
S113028020E030E040E858E30E94300BA3019201E3
S11302900E94300B2B013C0160915002709151027D
S11302A0072E000C880B990B0E947B0A20E030E09B
S11302B040E852E40E94300B9B01AC01C301B2013F
S11302C00E9496099B01AC01C501B4010E949509E5
S11302D04B015C0160914D0270914E02072E000C9F
S11302E0880B990B0E947B0A20E030E040E857E33A
S11302F00E94300B9B01AC01C501B4010E94300B7C
S1130300A70196010E94300B6B017C0160914C02A5
S113031070E080E090E00E94790AA70196010E94B3
S1130320300B20E030E040E056E30E94300B9B01AC
S1130330AC0160E070E080E89FE30E949509A701AA
S113034096010E94300B6B017C0120E030E048EC08
S113035052E40E942B0B1816E4F020E030E0A901CF
S1130360C701B6010E94020A87FD0FC0C701B6018A
S1130370FF90EF90DF90CF90BF90AF909F908F90C1
S11303807F906F905F904F900895C12CD12C76018F
S1130390EDCFC12CD12C88ECE82E82E4F82EE6CFE8
S11303A04F925F926F927F928F929F92AF92BF9281
S11303B0CF92DF92EF92FF92CF93DF9300D000D0E1
S11303C0CDB7DEB72B013C01609155027091560206
S11303D080915702909158020E947B0A20E030E0FD
S11303E040E05FE30E94300B20E030E04AE757E44E
S11303F00E9495096B017C01609144027091450251
S1130400072E000C880B990B0E947B0A4B015C01A0
S1130410A7019601C701B6010E94300B9B01AC01F4
S1130420C501B4010E94300B20E030E040E058E305
S11304300E94300B4B015C016091420270914302B7
S1130440072E000C880B990B0E947B0AA7019601CA
S11304500E94300B9B01AC010E949609A5019401F6
S11304600E94960920E030E040E85EE30E94300BF1
S11304704B015C016091400270914102072E000C17
S1130480880B990B0E947B0A20E030E040E857E497
S11304900E94300BA50194010E94960969837A8316
S11304A08B839C8360913E0270913F02072E000C67
S11304B0880B990B0E947B0AA70196010E94300BBE
S11304C0A70196010E94300B20E030E040E056E3A3
S11304D00E94300B4B015C0160913C0270913D0223
S11304E0072E000C880B990B0E947B0AA70196012A
S11304F00E94300B9B01AC01C501B4010E94960916
S113050020E030E040E056E30E94300B20E030E091
S113051040E058E30E94300B20E030E040E85FE325
S11305200E9496096B017C0160913A0270913B0232
S113053080E090E00E94790AA70196010E94300BA6
S11305406B017C0120E030E0A9010E942B0B1816FE
S11305500CF098C0C301B2010E947B0A9B01AC015C
S113056060E070E080E899E40E9495094B015C0129
S113057020E030E040E859E369817A818B819C81F5
S11305800E94300B9B01AC01C501B4010E94950986
S113059020E030E543EC55E40E94300BA7019601BE
S11305A00E94070A6B017C0160914A0270914B0220
S11305B0072E000C880B990B0E947B0AA701960159
S11305C00E94300BA70196010E94300B20E030E01E
S11305D040E050E30E94300B4B015C016091480203
S11305E070914902072E000C880B990B0E947B0A1C
S11305F0A70196010E94300B20E030E040E058E370
S11306000E94300B9B01AC01C501B4010E94960904
S11306104B015C016091460270914702072E000C69
S1130620880B990B0E947B0A9B01AC01C501B401A4
S11306300E94960920E030E040E85DE30E94300B20
S11306409B01AC01C701B6010E9496096B017C01B4
S113065020E030E64AEE56E40E94020A87FD12C00A
S113066020E038ED46ED57E4C701B6010E942B0B9C
S113067018167CF4C12C98EDD92E96EDE92E97E44A
S1130680F92E07C0C12C80E6D82E8AEEE82E86E427
S1130690F82EC701B6010F900F900F900F90DF91C5
S11306A0CF91FF90EF90DF90CF90BF90AF909F904D
S11306B08F907F906F905F904F9008958F929F924C
S11306C0AF92BF92CF92DF92EF92FF92CF93DF93DC
S11306D06B017C018090340290903502DC01CB01E7
S11306E0F7FC93C0AC01BD01C3E0759567955795C0
S11306F04795CA95D1F7A12CB12CD501C401880F17
S1130700991FAA1FBB1F9A01AB01281B390B4A0B67
S11307105B0BA0913602B09137020E94570FD62F7F
S1130720C72FF82FE92FF7FC85C0A4E0F594E794D0
S1130730D794C794AA95D1F7C701B6016819790966
S11307408A099B099B01AC010E941A0F9B01AC0111
S1130750BCE05595479537952795BA95D1F7A09163
S11307603802B09139020E94570F362F272F4D2F90
S11307705C2F6F2F7E2F77FD58C06A017B01FBE051
S1130780F594E794D794C794FA95D1F7432F522F51
S1130790BC0177FD45C03EE0759567955795479533
S11307A03A95D1F74C0D5D1D6E1D7F1D409355028A
S11307B0509356026093570270935802DB01CA01AA
S11307C0880F991FAA1FBB1F880F991FAA1FBB1F41
S11307D0480F591F6A1F7B1FDB01CA0180589F4FB6
S11307E0AF4FBF4FB7FD15C0692F7A2F8B2F9927B5
S11307F087FD9A95DF91CF91FF90EF90DF90CF9096
S1130800BF90AF909F908F9008950796A11DB11D42
S113081069CFDB01CA0181589E4FAF4FBF4FE4CF70
S11308204150504C6F4F7F4FB6CF4150584F6F4F90
S11308307F4FA3CF8FE0C80ED11CE11CF11C75CFF4
S11308401F920F920FB60F9211240F900FBE0F90AC
S11308501F90189594EA9093BC009091BC0097FF68
S1130860FCCF9091B900987F983011F081E0089501
S113087090E0880F991F8093BB0084E88093BC00AC
S11308808091BC0087FFFCCF8091B900887F8831BC
S113089011F082E008956093BB0084E88093BC006B
S11308A08091BC0087FFFCCF8091B900887F88329B
S11308B011F087E008954093BB0084E88093BC0066
S11308C08091BC0087FFFCCF8091B900887F88327B
S11308D011F084E0089584E98093BC0080E00895D9
S11308E094EA9093BC009091BC0097FFFCCF909148
S11308F0B900987F983011F089E00895282F30E0EE
S1130900220F331F2093BB0084E88093BC008091A6
S1130910BC0087FFFCCF8091B900887F883111F03B
S113092082E008956093BB0084E88093BC008091CA
S1130930BC0087FFFCCF8091B900887F883211F01A
S113094081E0089584EA8093BC008091BC0087FF15
S1130950FCCF8091B900887F803111F086E0089542
S113096021602093BB0084E88093BC008091BC008C
S113097087FFFCCF8091B900887F803411F084E038
S1130980089584E88093BC008091BC0087FFFCCF6D
S11309908091B900887F883511F083E008958091B3
S11309A0BB0094E99093BC00EFE9FFE03197F1F7C5
S11309B000C0000008951F93CF93DF93182F61E0C8
S11309C0680F87E70E947004C4E3D2E01882898329
S11309D0612F87E70E94700428813981282B39838D
S11309E0288363E0610F87E70E9470041A828B8377
S11309F062E0610F87E70E9470042A813B81282B03
S1130A003B832A8365E0610F87E70E9470041C82A0
S1130A108D8364E0610F87E70E9470042C813D811F
S1130A20282B3D832C8367E0610F87E70E947004C5
S1130A301E828F8366E0610F87E70E9470042E8117
S1130A403F81282B3F832E8369E0610F87E70E9453
S1130A5070041886898768E0610F87E70E94700434
S1130A6028853985282B398728876BE0610F87E72C
S1130A700E9470041A868B876AE0610F87E70E94E0
S1130A8070042A853B85282B3B872A876DE0610FFC
S1130A9087E70E9470041C868D876CE0610F87E7EE
S1130AA00E9470042C853D85282B3D872C876FE0A0
S1130AB0610F87E70E9470041E868F876EE0610FC6
S1130AC087E70E9470042E853F85282B3F872E8759
S1130AD061E1610F87E70E947004188A898B60E1E5
S1130AE0610F87E70E94700428893989282B398B84
S1130AF0288B63E1610F87E70E9470041A8A8B8B4D
S1130B0062E1610F87E70E9470042A893B89282BE0
S1130B103B8B2A8B65E1610F87E70E9470041C8A76
S1130B208D8B64E1610F87E70E9470042C893D89F5
S1130B30282B3D8B2C8B67E1610F87E70E947004A3
S1130B401E8A8F8B66E1610F87E70E9470042E89ED
S1130B503F89282B3F8B2E8B69E1610F87E70E9429
S1130B607004888F62EE87E70E947004198E8A8F62
S1130B7061EE87E70E947004298D3A8D282B3A8F05
S1130B80298F63EE87E70E9470048B8F64EE87E7FA
S1130B900E94700420E1829FC00111249D8F8C8FDC
S1130BA065EE87E70E947004282F2F708C8D9D8D31
S1130BB0822B9D8F8C8F66EE87E70E94700420E164
S1130BC0829FC00111249F8F8E8F65EE87E70E945C
S1130BD0700490E0A0E0B0E024E0B695A795979566
S1130BE087952A95D1F72E8D3F8D822B932B9F8F3E
S1130BF08E8F67EE87E70E94700488A3DF91CF9100
S1130C001F910895CF92DF92EF92FF92CF93C82F56
S1130C1062E0680F83E50E947004C82ED12CE12C99
S1130C20F12C8CE0CC0CDD1CEE1CFF1C8A95D1F75A
S1130C3061E06C0F83E50E947004D82A6C2F83E571
S1130C400E947004A7019601282BCA01B901CF9113
S1130C50FF90EF90DF90CF9008958F929F92AF9284
S1130C60BF92CF92DF92EF92FF921F93CF93DF93C5
S1130C70182F682F87E70E947004C82ED12CE12C0E
S1130C80F12C8CE0CC0CDD1CEE1CFF1C8A95D1F7FA
S1130C9061E0610F87E70E94700490E0A0E0B0E09B
S1130CA0880F991FAA1FBB1F880F991FAA1FBB1F5C
S1130CB0880F991FAA1FBB1F880F991FAA1FBB1F4C
S1130CC0C82AD92AEA2AFB2A62E0610F87E70E9430
S1130CD07004C9E5D2E090E0A0E0B0E044E0B5954E
S1130CE0A795979587954A95D1F7C82AD92AEA2ACC
S1130CF0FB2AC882D982EA82FB8263E0610F87E71C
S1130D000E947004C82ED12CE12CF12C460157010D
S1130D105CE0880C991CAA1CBB1C5A95D1F764E0B2
S1130D20610F87E70E947004C82ED12CE12CF12CAE
S1130D30CC0CDD1CEE1CFF1CCC0CDD1CEE1CFF1CC3
S1130D40D701C601880F991FAA1FBB1F880F991FBF
S1130D50AA1FBB1F6C017D01C828D928EA28FB28DB
S1130D6065E0610F87E70E94700490E0A0E0B0E0C6
S1130D70E4E0B595A79597958795EA95D1F7C82AA4
S1130D80D92AEA2AFB2ACC82DD82EE82FF8266E03F
S1130D90610F87E70E947004C82ED12CE12CF12C3E
S1130DA0FE2CED2CDC2CCC2467E0610F87E70E943D
S1130DB07004C82AC886D986EA86FB86DF91CF915B
S1130DC01F91FF90EF90DF90CF90BF90AF909F90D6
S1130DD08F900895CF93DF93DC01EC0120E030E0A5
S1130DE09091C00095FFFCCF89918093C6002F5F3E
S1130DF03F4FFD0101900020E9F73197EA1BFB0BFF
S1130E00E217F30768F7DF91CF910895F894259AD4
S1130E1088E48093B80084E08093BC0088E98093E0
S1130E20C10086E08093C2001092C50087E68093DB
S1130E30C40088E80E94DB0460ED87E70E94700428
S1130E401F928F9380E091E09F938F93C5E6D2E049
S1130E50DF93CF930E94CF10CE010E94EA0666E092
S1130E6083E50E9470041F928F9385E191E09F9324
S1130E708F93DF93CF930E94CF10CE010E94EA0696
S1130E8044E062EF87E70E942A048FE39CE901971C
S1130E90F1F700C0000041E964EF87E70E942A04EB
S1130EA08FE39CE90197F1F700C0000040E465EF8F
S1130EB087E70E942A048FE39CE90197F1F700C0B9
S1130EC0000042E060E083E50E942A048FE39CE98D
S1130ED00197F1F700C0000042E264E083E50E945C
S1130EE02A048FE39CE90197F1F700C0000041E078
S1130EF065E083E50E942A048FE39CE90197F1F7FA
S1130F0000C0000087EF0E942D06809160028F933D
S1130F1080915F028F9380915E028F9380915D0236
S1130F208F938BE291E09F938F93DF93CF930E94F3
S1130F30CF10CE010E94EA0660915D0270915E02BC
S1130F4080915F02909160020E945E039F938F9351
S1130F507F936F938FE291E09F938F93DF93CF936F
S1130F600E94CF10CE010E94EA0680915C028F930A
S1130F7080915B028F9380915A028F9380915902E2
S1130F808F9382E491E09F938F93DF93CF930E949A
S1130F90CF108DB79EB784960FB6F8949EBF0FBE40
S1130FA08DBFCE010E94EA066091590270915A02E7
S1130FB080915B0290915C020E94D0012FE732ED98
S1130FC04AE959E30E94300B9F938F937F936F9369
S1130FD086E591E09F938F93DF93CF930E94CF1088
S1130FE0CE010E94EA06809164028F93809163028D
S1130FF08F93809162028F93809161028F9387E631
S113100091E09F938F93DF93CF930E94CF10CE01F3
S11310100E94EA066091610270916202809163020B
S1131020909164020E94D4009F938F937F936F9357
S11310308BE791E09F938F93DF93CF930E94CF1020
S1131040CE010E94EA068DE00E940206162F072FA9
S1131050F82EE92E0E94790A2AE939E949E15FE389
S11310600E94300B20E030E040E450E40E94070A84
S11310709F938F937F936F93EF92FF920F931F939E
S113108080E991E09F938F93DF93CF930E94CF10D9
S11310908DB79EB784960FB6F8949EBF0FBE8DBFD2
S11310A0CE010E94EA064AE060E083E50E942A0439
S11310B08FE39CE90197F1F700C0000080E10E94F2
S11310C00206162F072FF82EE92E2CEF38E040E009
S11310D050E00E942A0FDA01C9019927AA27BB27E9
S11310E0BF93AF939F938F93EF92FF920F931F93AE
S11310F083EB91E09F938F93DF93CF930E94CF1064
S1131100CE010E94EA068DB79EB70C960FB6F894EE
S11311109EBF0FBE8DBF81EDA82E81E0B82E9BEE41
S1131120C92E91E0D92E21E0E22E22E0F22E3CEFEE
S1131130432E38E0532E612C712C47E1242E42E0DB
S1131140342E41E964EF87E70E942A048FE39CE987
S11311500197F1F700C0000087EF0E942D0660910F
S11311605D0270915E0280915F02909160020E9424
S11311705E030E947B0A20E030E048EC52E40E94C7
S1131180070A9F938F937F936F93BF92AF92DF93DE
S1131190CF930E94CF1085E692E00E94EA06609108
S11311A0590270915A0280915B0290915C020E94F4
S11311B0D0012FE732ED4AE959E30E94300B9F93A7
S11311C08F937F936F93DF92CF92DF93CF930E949D
S11311D0CF1085E692E00E94EA0660916102709168
S11311E0620280916302909164020E94D4009F93F2
S11311F08F937F936F93FF92EF92DF93CF930E942D
S1131200CF1085E692E00E94EA0642E060E083E5C2
S11312100E942A048FE39CE90197F1F700C00000C3
S113122042E060E083E50E942A049FEF21EE84E01F
S1131230915020408040E1F700C000008DE00E9402
S11312400206162F072F982E892E0E94790A2AE962
S113125039E949E15FE30E94300B20E030E040E4EB
S113126050E40E94070A9F938F937F936F938F920A
S11312709F920F931F9380E991E09F938F93DF9345
S1131280CF930E94CF108DB79EB784960FB6F89473
S11312909EBF0FBE8DBF85E692E00E94EA064AE03B
S11312A060E083E50E942A049FEF21EE84E09150E0
S11312B020408040E1F700C0000080E10E94020667
S11312C0162F072F982E892EA30192010E942A0F10
S11312D0DA01C9019927AA27BB27BF93AF939F932C
S11312E08F938F929F920F931F933F922F92DF932E
S11312F0CF930E94CF1085E692E00E94EA0685B162
S113130090E2892785B92FEF83ED90E32150804047
S11313109040E1F700C000008DB79EB70C960FB661
S1131320F8949EBF0FBE8DBF0CCF5058BB27AA2781
S11313300E94AD090C94F10A0E94E30A38F00E945D
S1131340EA0A20F039F49F3F19F426F40C94E00AD9
S11313500EF4E095E7FB0C94DA0AE92F0E94020BE5
S113136058F3BA17620773078407950720F079F4D6
S1131370A6F50C94240B0EF4E0950B2EBA2FA02D99
S11313800B01B90190010C01CA01A0011124FF272E
S1131390591B99F0593F50F4503E68F11A16F04029
S11313A0A22F232F342F4427585FF3CF4695379528
S11313B02795A795F0405395C9F77EF41F16BA0BED
S11313C0620B730B840BBAF09150A1F0FF0FBB1F9B
S11313D0661F771F881FC2F70EC0BA0F621F731FE4
S11313E0841F48F4879577956795B795F7959E3F41
S11313F008F0B0CF9395880F08F09927EE0F9795D2
S1131400879508950E94B60A08F481E008950E9421
S11314101B0A0C94F10A0E94EA0A58F00E94E30A9B
S113142040F029F45F3F29F00C94DA0A51110C942E
S1131430250B0C94E00A0E94020B68F39923B1F384
S1131440552391F3951B550BBB27AA2762177307E6
S1131450840738F09F5F5F4F220F331F441FAA1F7A
S1131460A9F335D00E2E3AF0E0E832D09150504036
S1131470E695001CCAF72BD0FE2F29D0660F771FE4
S1131480881FBB1F261737074807AB07B0E809F0CA
S1131490BB0B802DBF01FF2793585F4F3AF09E3F4F
S11314A0510578F00C94DA0A0C94250B5F3FE4F3B1
S11314B0983ED4F3869577956795B795F7959F5F92
S11314C0C9F7880F911D9695879597F90895E1E0DE
S11314D0660F771F881FBB1F621773078407BA073D
S11314E020F0621B730B840BBA0BEE1F88F7E09598
S11314F00895E89409C097FB3EF490958095709503
S113150061957F4F8F4F9F4F9923A9F0F92F96E94B
S1131510BB279395F695879577956795B795F111C0
S1131520F8CFFAF4BB0F11F460FF1BC06F5F7F4F5D
S11315308F4F9F4F16C0882311F096E911C077236F
S113154021F09EE8872F762F05C0662371F096E878
S1131550862F70E060E02AF09A95660F771F881F47
S1131560DAF7880F9695879597F90895990F0008EB
S1131570550FAA0BE0E8FEEF16161706E807F90761
S1131580C0F012161306E407F50798F0621B730BFC
S1131590840B950B39F40A2661F0232B242B252B7D
S11315A021F408950A2609F4A140A6958FEF811D20
S11315B0811D089597F99F6780E870E060E00895C1
S11315C09FEF80EC089500240A9416161706180657
S11315D00906089500240A94121613061406050633
S11315E00895092E0394000C11F4882352F0BB0FC4
S11315F040F4BF2B11F460FF04C06F5F7F4F8F4F27
S11316009F4F089557FD9058440F551F59F05F3F61
S113161071F04795880F97FB991F61F09F3F79F010
S113162087950895121613061406551FF2CF469592
S1131630F1DF08C0161617061806991FF1CF869514
S11316407105610508940895E894BB2766277727F8
S1131650CB0197F908950E94B60A08F48FEF089514
S11316600E94430B0C94F10A0E94E30A38F00E9492
S1131670EA0A20F0952311F00C94DA0A0C94E00A9B
S113168011240C94250B0E94020B70F3959FC1F357
S1131690950F50E0551F629FF001729FBB27F00D1C
S11316A0B11D639FAA27F00DB11DAA1F649F662771
S11316B0B00DA11D661F829F2227B00DA11D621FC0
S11316C0739FB00DA11D621F839FA00D611D221F7A
S11316D0749F3327A00D611D231F849F600D211D5E
S11316E0822F762F6A2F11249F5750409AF0F1F0E1
S11316F088234AF0EE0FFF1FBB1F661F771F881F4A
S113170091505040A9F79E3F510580F00C94DA0A9D
S11317100C94250B5F3FE4F3983ED4F386957795BC
S11317206795B795F795E7959F5FC1F7FE2B880FEF
S1131730911D9695879597F90895A0E1B0E0E3EAA5
S1131740FBE00C945F0F7C011B016A01FC01178212
S11317501682838181FF44C39E012F5F3F4F39016D
S1131760F7019381F10193FD859193FF81911F010D
S1131770882309F431C3853239F493FD859193FFAD
S113178081911F01853239F4B70190E00E949310D2
S113179056016501E5CF10E0512C912CFFE1F915BC
S11317A0D8F08B3279F038F4803279F08332A1F4B6
S11317B0F92DF0612EC08D3261F0803369F4292D4A
S11317C021602DC0392D3260932E892D8460982E8E
S11317D02AC0E92DE86015C097FC2DC020ED280F24
S11317E02A3088F496FE06C03AE0139F200D112497
S11317F0122F19C08AE0589E200D1124522EE92D73
S1131800E0629E2E10C08E3231F496FCE5C2F92DB2
S1131810F0649F2E08C08C3621F4292D2068922E66
S113182002C0883641F4F10193FD859193FF8191C3
S11318301F018111B3CF9BEB980F933020F4992DA6
S11318409061805E07C09BE9980F933008F066C1F1
S1131850992D9F7E96FF16E09F73992E853619F475
S11318609064992E08C0863621F4392F3068932E5F
S113187002C01111115097FE07C01C3350F44424C8
S11318804394410E27E00BC0183038F027E017E0EE
S113189005C027E09CE3492E02C0212F412C5601AC
S11318A084E0A80EB11CF60160817181828193816C
S11318B0042DA3010E94A50F6C01F981FC87F0FFA0
S11318C002C0F3FF06C091FC06C092FE06C000E20F
S11318D005C00DE203C00BE201C000E08C858C70F2
S11318E019F001115AC29BC297FE10C04C0CFC8522
S11318F0F4FF04C08A81813309F44A94141474F502
S113190028E0241578F588E0482E2CC096FC2AC0DF
S1131910812F90E08C159D059CF03CEFC3163FEFA2
S1131920D30674F0892D8068982E0AC0E2E0F0E0B6
S1131930EC0FFD1FE10FF11D8081803319F411506C
S11319401111F4CF97FE0EC044244394410E812F0D
S113195090E0C816D9062CF41C1904C044244394FE
S113196001C010E097FE06C01C141D0434F4C60127
S1131970019605C085E090E002C081E090E001118D
S11319800196112331F0212F30E02F5F3F4F820F5A
S1131990931F252D30E08217930714F4581A01C0C1
S11319A0512C892D897049F4552039F0B70180E212
S11319B090E00E9493105A94F7CF002329F0B701C6
S11319C0802F90E00E94931093FC09C0552039F0B9
S11319D0B70180E390E00E9493105A94F7CF97FEEA
S11319E04CC04601D7FE02C0812C912CC601881937
S11319F09909F301E80FF91FFE87ED879601241971
S1131A003109388B2F87012F10E0119501951109A9
S1131A103FEF8316930629F4B7018EE290E00E940B
S1131A209310C814D9044CF08F85988988159905AA
S1131A3024F4ED85FE85818101C080E3F1E08F1AF5
S1131A4091082D853E852F5F3F4F3E872D87801659
S1131A5091062CF0B70190E00E949310D9CFC814DE
S1131A60D90441F49A81963320F4953319F43C85D2
S1131A7034FF81E3B70190E04EC08A81813319F0CD
S1131A809C859F7E9C87B70190E00E949310111162
S1131A9005C094FC18C085E690E017C0B7018EE23B
S1131AA090E00E9493101E5F82E001E0080FF301B2
S1131AB0E80FF11D8081B70190E00E949310802F00
S1131AC00113F3CFE6CF85E490E0B7010E949310B1
S1131AD0D7FC06C0C114D10441F4EC85E4FF05C071
S1131AE0D194C194D1088DE201C08BE2B70190E09A
S1131AF00E94931080E32AE0C216D1042CF08F5F79
S1131B00FAE0CF1AD108F7CFB70190E00E94931002
S1131B10B701C601C0960E94931054C1833631F0B8
S1131B20833779F0833509F056C020C0560132E07E
S1131B30A30EB11CF6018081898301E010E06301EA
S1131B4012C05601F2E0AF0EB11CF601C080D18084
S1131B5096FE03C0612F70E002C06FEF7FEFC601F5
S1131B600E9488108C01F92DFF7714C0560122E0E1
S1131B70A20EB11CF601C080D18096FE03C0612F75
S1131B8070E002C06FEF7FEFC6010E947D108C01F0
S1131B90F92DF0689F2EF3FD1AC0852D90E00817EB
S1131BA01907A8F4B70180E290E00E9493105A94B8
S1131BB0F4CFF60197FC859197FE81916F01B701EF
S1131BC090E00E94931051105A940150110901158C
S1131BD0110579F7F7C0843611F0893661F556019D
S1131BE097FE09C024E0A20EB11CF6016081718148
S1131BF0828193810AC0F2E0AF0EB11CF6016081CC
S1131C007181072E000C880B990BF92DFF769F2EFE
S1131C1097FF09C090958095709561957F4F8F4F80
S1131C209F4FF0689F2E2AE030E0A3010E94F1103C
S1131C30C82EC6183FC0092D853721F40F7E2AE02F
S1131C4030E01DC0097F8F3691F018F4883559F0C3
S1131C50C3C0803719F0883711F0BEC0006104FF9B
S1131C6009C0046007C094FE08C0066006C028E0EE
S1131C7030E005C020E130E002C020E132E056014E
S1131C8007FF09C084E0A80EB11CF60160817181D0
S1131C908281938108C0F2E0AF0EB11CF60160812D
S1131CA0718180E090E0A3010E94F110C82EC61853
S1131CB00F77902E96FE0BC0092D0E7FC11650F49F
S1131CC094FE0AC092FC08C0092D0E7E05C0DC2CCF
S1131CD0092D03C0DC2C01C0D12E04FF0DC0FE0170
S1131CE0EC0DF11D8081803311F4097E09C002FFDF
S1131CF006C0D394D39404C0802F867809F0D3947B
S1131D0003FD11C000FF06C01C2DD51480F4150D71
S1131D101D190DC0D51458F4B70180E290E00E945B
S1131D209310D394F7CFD51410F45D1801C0512C3F
S1131D3004FF10C0B70180E390E00E94931002FFFB
S1131D4017C001FD03C088E790E002C088E590E079
S1131D50B7010CC0802F867859F001FF02C08BE2D6
S1131D6001C080E207FD8DE2B70190E00E9493106C
S1131D70C11638F4B70180E390E00E94931011502B
S1131D80F7CFCA94F301EC0DF11D8081B70190E007
S1131D900E949310C110F5CF15C0F4E0F51560F55D
S1131DA084E0581A93FE1FC0011127C02C8523FF1D
S1131DB02AC008E610E0392D3071932EF801849181
S1131DC0811124C0552009F4E4CCB70180E290E0ED
S1131DD00E9493105A94F6CFF7018681978126C00A
S1131DE08FEF9FEF23C0B70180E290E00E94931031
S1131DF05A945110F8CFD8CF512CB701802F90E0CE
S1131E000E949310D3CF0CE610E0D5CF91108052EE
S1131E10B70190E00E9493100F5F1F4FCFCF23E0D4
S1131E20251510F483E0BDCF512CC0CF6096E2E1BC
S1131E300C947B0FDB018F939F930E944C0FBF91F7
S1131E40AF91A29F800D911DA39F900DB29F900D05
S1131E5011240895A1E21A2EAA1BBB1BFD010DC07B
S1131E60AA1FBB1FEE1FFF1FA217B307E407F50746
S1131E7020F0A21BB30BE40BF50B661F771F881F22
S1131E80991F1A9469F760957095809590959B01B8
S1131E90AC01BD01CF0108950E94960FA59F900D3E
S1131EA0B49F900DA49F800D911D11240895B7FF38
S1131EB00C944C0F0E944C0F821B930B08952F928D
S1131EC03F924F925F926F927F928F929F92AF92C6
S1131ED0BF92CF92DF92EF92FF920F931F93CF9313
S1131EE0DF93CDB7DEB7CA1BDB0B0FB6F894DEBFAA
S1131EF00FBECDBF09942A88398848885F846E84D0
S1131F007D848C849B84AA84B984C884DF80EE8019
S1131F10FD800C811B81AA81B981CE0FD11D0FB622
S1131F20F894DEBF0FBECDBFED010895A29FB001AE
S1131F30B39FC001A39F700D811D1124911DB29FF9
S1131F40700D811D1124911D0895283008F027E09B
S1131F503327DA01990F311D87FD916000966105E1
S1131F60710539F432602E5F3D9330E32A95E1F731
S1131F7008959F3F30F080387105610509F03C5F9A
S1131F803C5F3D93913008F08068911DDF93CF93BF
S1131F901F930F93FF92EF92192F987F9695E92F35
S1131FA096959695E90FFF27E653FF4F9927332718
S1131FB0EE24FF24A701E70105900894079428F470
S1131FC0360FE71EF81E491F511D660F771F881F25
S1131FD0991F0694A1F70590079428F4E70EF81EBC
S1131FE0491F561FC11D770F881F991F661F06942E
S1131FF0A1F70590079428F4F80E491F561FC71F30
S1132000D11D880F991F661F771F0694A1F70590AD
S1132010079420F4490F561FC71FD81F990F661F36
S1132020771F881F0694A9F784911095177041F0C3
S1132030D695C79557954795F794E7941A95C1F7A0
S1132040E0E7F0E0689415901591359165919591CC
S113205005907FE27395E118F10A430B560BC90B07
S1132060D009C0F7E10CF11E431F561FC91FD01D34
S11320707EF4703311F48A95E6CFE894015030F081
S1132080080F0AF40027021708F4202F2395022FC3
S11320907A3328F079E37D932A95E9F710C07D938C
S11320A02A9589F606949795679537951795179409
S11320B0E118F10A430B560BC90BD00998F023958C
S11320C07E9173957A3308F070E37C932013B8F70C
S11320D07E9170617D9330F0839571E37D9370E31D
S11320E02A95E1F71124EF90FF900F911F91CF9162
S11320F0DF91992787FD90950895FC010590615023
S113210070400110D8F7809590958E0F9F1F089509
S1132110FC016150704001900110D8F780959095B2
S11321208E0F9F1F08950F931F93CF93DF93FB018F
S1132130238121FD03C08FEF9FEF2CC022FF16C027
S113214046815781248135814217530744F4A08185
S1132150B1819D012F5F3F4F318320838C93268172
S113216037812F5F3F4F3783268314C08B01EC01E7
S1132170FB010084F185E02D0995892BE1F6D80156
S113218016968D919C911797019617969C938E9312
S11321901697CE01DF91CF911F910F910895AEE074
S11321A0B0E0E5EDF0E10C946D0F0D891E8986E039
S11321B08C831A8309838FEF9FE79E838D83AE01FF
S11321C0475E5F4F6F89788DCE0101960E949D0B0B
S11321D0EF81F885E00FF11F10822E96E4E00C9455
S11321E0890FFA01AA27283051F1203181F1E894AE
S11321F06F936E7F6E5F7F4F8F4F9F4FAF4FB1E0F6
S11322003ED0B4E03CD0670F781F891F9A1FA11DF0
S1132210680F791F8A1F911DA11D6A0F711D811DF1
S1132220911DA11D20D009F468943F912AE0269FB6
S113223011243019305D3193DEF6CF010895462F15
S11322404770405D4193B3E00FD0C9F7F6CF462FF6
S11322504F70405D4A3318F0495D31FD405241935F
S113226002D0A9F7EACFB4E0A6959795879577951C
S11322706795BA95C9F700976105710508959B01A3
S1132280AC010A2E06945795479537952795BA952C
S1132290C9F7620F731F841F951FA01D0895F8943A
S10522A0FFCF6A
S11322A2424D4532383020436869702049443A200F
S11322B225780D0A004C5452333930436869702032
S11322C249443A2025780D0A0D0A005241572054F8
S11322D2656D70657261747572653A20256C640D62
S11322E20A005241572070726573737572653A2001
S11322F2256C640D0A0050726573737572653A2019
S1132302252E32660D0A005241572068756D6964A4
S11323126974793A20256C640D0A0048756D696404
S11323226974793A20252E32660D0A0D0A0D0A00C7
S113233252415720416D6269656E74204C69676829
S1132342743A20256C640909252E3266206C75784E
S11323520D0A005241572055563A20256C6409094A
S1132362555620696E6465783A20256C64200D0AFE
S11323720054656D70657261747572653A20252E1C
S11323823266206465672E430D0A005072657373CA
S11323927572653A20252E326620696E48670D0AE9
S11323A20048756D69646974793A20252E32662075
S11323B225250D0A0D0A005241572055563A20256B
S11323C26C640909555620696E6465783A20256C57
S10723D264200D0072
S9030000FC
